{
  "contractName": "Medicines",
  "abi": [
    {
      "constant": true,
      "inputs": [],
      "name": "brandMedCount",
      "outputs": [
        {
          "name": "",
          "type": "uint256"
        }
      ],
      "payable": false,
      "stateMutability": "view",
      "type": "function",
      "signature": "0x26c63c52"
    },
    {
      "constant": true,
      "inputs": [
        {
          "name": "",
          "type": "uint256"
        }
      ],
      "name": "brandMedList",
      "outputs": [
        {
          "name": "ManId",
          "type": "uint256"
        },
        {
          "name": "brandName",
          "type": "bytes32"
        },
        {
          "name": "price",
          "type": "uint256"
        }
      ],
      "payable": false,
      "stateMutability": "view",
      "type": "function",
      "signature": "0xedc01c50"
    },
    {
      "inputs": [],
      "payable": false,
      "stateMutability": "nonpayable",
      "type": "constructor",
      "signature": "constructor"
    },
    {
      "constant": false,
      "inputs": [
        {
          "name": "name",
          "type": "bytes32"
        }
      ],
      "name": "getBrandMedId",
      "outputs": [
        {
          "name": "",
          "type": "uint256"
        }
      ],
      "payable": false,
      "stateMutability": "nonpayable",
      "type": "function",
      "signature": "0xe39b9407"
    },
    {
      "constant": false,
      "inputs": [
        {
          "name": "source",
          "type": "string"
        }
      ],
      "name": "stringToBytes32",
      "outputs": [
        {
          "name": "result",
          "type": "bytes32"
        }
      ],
      "payable": false,
      "stateMutability": "nonpayable",
      "type": "function",
      "signature": "0xcfb51928"
    },
    {
      "constant": false,
      "inputs": [
        {
          "name": "manId",
          "type": "uint256"
        },
        {
          "name": "brandName",
          "type": "string"
        },
        {
          "name": "price",
          "type": "uint256"
        }
      ],
      "name": "addMedicines",
      "outputs": [],
      "payable": false,
      "stateMutability": "nonpayable",
      "type": "function",
      "signature": "0x76964f50"
    }
  ],
  "bytecode": "0x608060405234801561001057600080fd5b5033600160006101000a81548173ffffffffffffffffffffffffffffffffffffffff021916908373ffffffffffffffffffffffffffffffffffffffff1602179055506100a360026040805190810160405280600681526020017f43726f63696e000000000000000000000000000000000000000000000000000081525060646100f9640100000000026401000000009004565b6100f460026040805190810160405280600381526020017f456e6f000000000000000000000000000000000000000000000000000000000081525060326100f9640100000000026401000000009004565b610294565b600160009054906101000a900473ffffffffffffffffffffffffffffffffffffffff1673ffffffffffffffffffffffffffffffffffffffff163373ffffffffffffffffffffffffffffffffffffffff1614151561015557600080fd5b600061016f836101fb640100000000026401000000009004565b9050600061018b82610227640100000000026401000000009004565b905060008114156101f4576060604051908101604052808681526020018381526020018481525060026000806000815460010191905081905581526020019081526020016000206000820151816000015560208201518160010155604082015181600201559050505b5050505050565b60006060829050600081511415610219576000600102915050610222565b60208301519150505b919050565b600080600054141561023c576000905061028f565b6000600190505b60005481141515610289576000600260008381526020019081526020016000209050838160010154141561027b57819250505061028f565b818060010192505050610243565b50600090505b919050565b6104da806102a36000396000f3fe60806040526004361061006d576000357c0100000000000000000000000000000000000000000000000000000000900463ffffffff16806326c63c521461007257806376964f501461009d578063cfb5192814610179578063e39b940714610255578063edc01c50146102a4575b600080fd5b34801561007e57600080fd5b50610087610301565b6040518082815260200191505060405180910390f35b3480156100a957600080fd5b50610177600480360360608110156100c057600080fd5b8101908080359060200190929190803590602001906401000000008111156100e757600080fd5b8201836020820111156100f957600080fd5b8035906020019184600183028401116401000000008311171561011b57600080fd5b91908080601f016020809104026020016040519081016040528093929190818152602001838380828437600081840152601f19601f82011690508083019250505050505050919291929080359060200190929190505050610307565b005b34801561018557600080fd5b5061023f6004803603602081101561019c57600080fd5b81019080803590602001906401000000008111156101b957600080fd5b8201836020820111156101cb57600080fd5b803590602001918460018302840111640100000000831117156101ed57600080fd5b91908080601f016020809104026020016040519081016040528093929190818152602001838380828437600081840152601f19601f8201169050808301925050505050505091929192905050506103eb565b6040518082815260200191505060405180910390f35b34801561026157600080fd5b5061028e6004803603602081101561027857600080fd5b8101908080359060200190929190505050610417565b6040518082815260200191505060405180910390f35b3480156102b057600080fd5b506102dd600480360360208110156102c757600080fd5b8101908080359060200190929190505050610484565b60405180848152602001838152602001828152602001935050505060405180910390f35b60005481565b600160009054906101000a900473ffffffffffffffffffffffffffffffffffffffff1673ffffffffffffffffffffffffffffffffffffffff163373ffffffffffffffffffffffffffffffffffffffff1614151561036357600080fd5b600061036e836103eb565b9050600061037b82610417565b905060008114156103e4576060604051908101604052808681526020018381526020018481525060026000806000815460010191905081905581526020019081526020016000206000820151816000015560208201518160010155604082015181600201559050505b5050505050565b60006060829050600081511415610409576000600102915050610412565b60208301519150505b919050565b600080600054141561042c576000905061047f565b6000600190505b60005481141515610479576000600260008381526020019081526020016000209050838160010154141561046b57819250505061047f565b818060010192505050610433565b50600090505b919050565b6002602052806000526040600020600091509050806000015490806001015490806002015490508356fea165627a7a72305820b2b8e9f6fe8f13a8cdf920cc8380d58fa6acc2c49a127db6f9bc004412ad76f70029",
  "source": "pragma solidity ^0.5.0;\r\n\r\ncontract Medicines{\r\n\r\n\t//structure of branded medicines\r\n\tstruct brandMedicine{\r\n\t\tuint ManId;\r\n\t\tbytes32 brandName;\r\n\t\tuint price;\r\n\t}\r\n\r\n\tuint public brandMedCount;\r\n\taddress admin;\r\n\r\n\tmodifier onlyAdmin{ \r\n\t\trequire (msg.sender == admin); \r\n\t\t_; \r\n\t}\r\n\r\n\tmapping(uint=>brandMedicine) public brandMedList;\r\n\r\n\tconstructor() public {\r\n\t\tadmin = msg.sender;\r\n\t\taddMedicines(2, \"Crocin\", 100);\r\n\t\taddMedicines(2, \"Eno\", 50);\r\n\t}\r\n\r\n\r\n\tfunction getBrandMedId(bytes32 name) public returns (uint){\r\n\t\tif(brandMedCount==0) return 0;\r\n\t\telse{\r\n\t\t\tuint i = 1;\r\n\t\t\twhile(i!=brandMedCount){\r\n\t\t\t\tbrandMedicine storage obj = brandMedList[i];\r\n\t\t\t\tif(obj.brandName==name) return i;\r\n\t\t\t\ti++;\r\n\t\t\t}\r\n\t\t}\r\n\t\treturn 0;\r\n\t}\r\n\r\n\tfunction stringToBytes32(string memory source) public returns (bytes32 result) {\r\n\t    bytes memory tempEmptyStringTest = bytes(source);\r\n\t    if (tempEmptyStringTest.length == 0) {\r\n\t        return 0x0;\r\n\t    }\r\n\r\n\t    assembly {\r\n\t        result := mload(add(source, 32))\r\n\t    }\r\n\t}\r\n\r\n\r\n\tfunction addMedicines(uint manId, string memory brandName, uint price) public onlyAdmin{\r\n\t\tbytes32 bName = stringToBytes32(brandName);\r\n\t\tuint indexMed = getBrandMedId(bName);\r\n\t\tif(indexMed==0){\r\n\t\t\tbrandMedList[++brandMedCount] = brandMedicine(manId,bName,price);\r\n\t\t}\r\n\t}\r\n\r\n\r\n\t// function viewMeds(uint manId) public returns (uint){\r\n\t// \tuint i;\r\n\t// \tbytes32[] public brandMedArr;\r\n\t// \twhile(i!=brandMedCount){\r\n\t// \t\tif(manId=brandMedList[i].manId){\r\n\t// \t\t\tbrandMedArr[i] = brandMedList[i++].brandName;\r\n\t// \t\t}\r\n\t// \t}\r\n\t// \treturn i;\r\n\t// }\r\n\r\n}",
  "sourcePath": "C:/MedChain/contracts/Medicines.sol",
  "compiler": {
    "name": "solc",
    "version": "0.5.0+commit.1d4f565a.Emscripten.clang"
  },
  "schemaVersion": "3.0.6",
  "updatedAt": "2019-03-31T02:57:44.490Z",
  "devdoc": {
    "methods": {}
  },
  "userdoc": {
    "methods": {}
  }
}