{
  "contractName": "UserInfo",
  "abi": [
    {
      "constant": true,
      "inputs": [],
      "name": "userCount",
      "outputs": [
        {
          "name": "",
          "type": "uint256"
        }
      ],
      "payable": false,
      "stateMutability": "view",
      "type": "function",
      "signature": "0x07973ccf"
    },
    {
      "constant": true,
      "inputs": [
        {
          "name": "",
          "type": "address"
        }
      ],
      "name": "userMap",
      "outputs": [
        {
          "name": "",
          "type": "uint256"
        }
      ],
      "payable": false,
      "stateMutability": "view",
      "type": "function",
      "signature": "0x2bcc23f8"
    },
    {
      "constant": true,
      "inputs": [
        {
          "name": "",
          "type": "uint256"
        }
      ],
      "name": "userslist",
      "outputs": [
        {
          "name": "accountId",
          "type": "address"
        },
        {
          "name": "name",
          "type": "bytes32"
        },
        {
          "name": "email",
          "type": "bytes32"
        },
        {
          "name": "contactNumber",
          "type": "bytes32"
        },
        {
          "name": "licenseid",
          "type": "bytes32"
        },
        {
          "name": "utype",
          "type": "uint8"
        }
      ],
      "payable": false,
      "stateMutability": "view",
      "type": "function",
      "signature": "0x9e1ae6b5"
    },
    {
      "constant": true,
      "inputs": [],
      "name": "admin",
      "outputs": [
        {
          "name": "",
          "type": "address"
        }
      ],
      "payable": false,
      "stateMutability": "view",
      "type": "function",
      "signature": "0xf851a440"
    },
    {
      "inputs": [],
      "payable": false,
      "stateMutability": "nonpayable",
      "type": "constructor",
      "signature": "constructor"
    },
    {
      "constant": false,
      "inputs": [
        {
          "name": "source",
          "type": "string"
        }
      ],
      "name": "stringToBytes32",
      "outputs": [
        {
          "name": "result",
          "type": "bytes32"
        }
      ],
      "payable": false,
      "stateMutability": "nonpayable",
      "type": "function",
      "signature": "0xcfb51928"
    },
    {
      "constant": false,
      "inputs": [
        {
          "name": "account",
          "type": "address"
        },
        {
          "name": "uname",
          "type": "string"
        },
        {
          "name": "uemail",
          "type": "string"
        },
        {
          "name": "ucontactNumber",
          "type": "string"
        },
        {
          "name": "ulicenseid",
          "type": "string"
        },
        {
          "name": "utype",
          "type": "uint8"
        }
      ],
      "name": "addUser",
      "outputs": [],
      "payable": false,
      "stateMutability": "nonpayable",
      "type": "function",
      "signature": "0x1ca8b0b8"
    },
    {
      "constant": false,
      "inputs": [
        {
          "name": "_index",
          "type": "uint256"
        }
      ],
      "name": "getValue",
      "outputs": [
        {
          "name": "",
          "type": "uint256"
        }
      ],
      "payable": false,
      "stateMutability": "nonpayable",
      "type": "function",
      "signature": "0x0ff4c916"
    }
  ],
  "bytecode": "0x608060405234801561001057600080fd5b5061011773f5d2d22681db772507ef48be6474ab5037c104456040805190810160405280600381526020017f73646600000000000000000000000000000000000000000000000000000000008152506040805190810160405280601081526020017f73646673646640676d61696c2e636f6d000000000000000000000000000000008152506040805190810160405280600a81526020017f39373639353737303633000000000000000000000000000000000000000000008152506040805190810160405280600681526020017f6173646173640000000000000000000000000000000000000000000000000000815250600361053c640100000000026401000000009004565b61021d7350bb13c54482aeb8c4085bdfe72556adc698c57f6040805190810160405280600381526020017f73646600000000000000000000000000000000000000000000000000000000008152506040805190810160405280601081526020017f73646673646640676d61696c2e636f6d000000000000000000000000000000008152506040805190810160405280600a81526020017f39373639353737303633000000000000000000000000000000000000000000008152506040805190810160405280600681526020017f6173646173640000000000000000000000000000000000000000000000000000815250600061053c640100000000026401000000009004565b61032373820fdf60e9e160f147249c82158866175a2f08446040805190810160405280600381526020017f73646600000000000000000000000000000000000000000000000000000000008152506040805190810160405280601081526020017f73646673646640676d61696c2e636f6d000000000000000000000000000000008152506040805190810160405280600a81526020017f39373639353737303633000000000000000000000000000000000000000000008152506040805190810160405280600681526020017f6173646173640000000000000000000000000000000000000000000000000000815250600161053c640100000000026401000000009004565b6104297386f990a75df2a4993357bb0d5d9cce2ca7d98a286040805190810160405280600381526020017f73646600000000000000000000000000000000000000000000000000000000008152506040805190810160405280601081526020017f73646673646640676d61696c2e636f6d000000000000000000000000000000008152506040805190810160405280600a81526020017f39373639353737303633000000000000000000000000000000000000000000008152506040805190810160405280600681526020017f6173646173640000000000000000000000000000000000000000000000000000815250600261053c640100000000026401000000009004565b61052f73f32e838a29b25d7de0e59f9fbaf63116426c64e46040805190810160405280600381526020017f73646600000000000000000000000000000000000000000000000000000000008152506040805190810160405280601081526020017f73646673646640676d61696c2e636f6d000000000000000000000000000000008152506040805190810160405280600a81526020017f39373639353737303633000000000000000000000000000000000000000000008152506040805190810160405280600681526020017f6173646173640000000000000000000000000000000000000000000000000000815250600461053c640100000000026401000000009004565b6005600081905550610734565b600061055686610708640100000000026401000000009004565b9050600061057286610708640100000000026401000000009004565b9050600061058e86610708640100000000026401000000009004565b905060006105aa86610708640100000000026401000000009004565b905060c0604051908101604052808b73ffffffffffffffffffffffffffffffffffffffff1681526020018581526020018481526020018381526020018281526020018660048111156105f857fe5b815250600360008060008154600101919050819055815260200190815260200160002060008201518160000160006101000a81548173ffffffffffffffffffffffffffffffffffffffff021916908373ffffffffffffffffffffffffffffffffffffffff1602179055506020820151816001015560408201518160020155606082015181600301556080820151816004015560a08201518160050160006101000a81548160ff021916908360048111156106ae57fe5b0217905550905050600054600460008c73ffffffffffffffffffffffffffffffffffffffff1673ffffffffffffffffffffffffffffffffffffffff1681526020019081526020016000208190555050505050505050505050565b6000606082905060008151141561072657600060010291505061072f565b60208301519150505b919050565b6108cd806107436000396000f3fe608060405260043610610083576000357c0100000000000000000000000000000000000000000000000000000000900463ffffffff16806307973ccf146100885780630ff4c916146100b35780631ca8b0b8146101025780632bcc23f8146103bc5780639e1ae6b514610421578063cfb51928146104cd578063f851a440146105a9575b600080fd5b34801561009457600080fd5b5061009d610600565b6040518082815260200191505060405180910390f35b3480156100bf57600080fd5b506100ec600480360360208110156100d657600080fd5b8101908080359060200190929190505050610606565b6040518082815260200191505060405180910390f35b34801561010e57600080fd5b506103ba600480360360c081101561012557600080fd5b81019080803573ffffffffffffffffffffffffffffffffffffffff1690602001909291908035906020019064010000000081111561016257600080fd5b82018360208201111561017457600080fd5b8035906020019184600183028401116401000000008311171561019657600080fd5b91908080601f016020809104026020016040519081016040528093929190818152602001838380828437600081840152601f19601f820116905080830192505050505050509192919290803590602001906401000000008111156101f957600080fd5b82018360208201111561020b57600080fd5b8035906020019184600183028401116401000000008311171561022d57600080fd5b91908080601f016020809104026020016040519081016040528093929190818152602001838380828437600081840152601f19601f8201169050808301925050505050505091929192908035906020019064010000000081111561029057600080fd5b8201836020820111156102a257600080fd5b803590602001918460018302840111640100000000831117156102c457600080fd5b91908080601f016020809104026020016040519081016040528093929190818152602001838380828437600081840152601f19601f8201169050808301925050505050505091929192908035906020019064010000000081111561032757600080fd5b82018360208201111561033957600080fd5b8035906020019184600183028401116401000000008311171561035b57600080fd5b91908080601f016020809104026020016040519081016040528093929190818152602001838380828437600081840152601f19601f820116905080830192505050505050509192919290803560ff16906020019092919050505061063e565b005b3480156103c857600080fd5b5061040b600480360360208110156103df57600080fd5b81019080803573ffffffffffffffffffffffffffffffffffffffff1690602001909291905050506107ce565b6040518082815260200191505060405180910390f35b34801561042d57600080fd5b5061045a6004803603602081101561044457600080fd5b81019080803590602001909291905050506107e6565b604051808773ffffffffffffffffffffffffffffffffffffffff1673ffffffffffffffffffffffffffffffffffffffff1681526020018681526020018581526020018481526020018381526020018260048111156104b457fe5b60ff168152602001965050505050505060405180910390f35b3480156104d957600080fd5b50610593600480360360208110156104f057600080fd5b810190808035906020019064010000000081111561050d57600080fd5b82018360208201111561051f57600080fd5b8035906020019184600183028401116401000000008311171561054157600080fd5b91908080601f016020809104026020016040519081016040528093929190818152602001838380828437600081840152601f19601f82011690508083019250505050505050919291929050505061084f565b6040518082815260200191505060405180910390f35b3480156105b557600080fd5b506105be61087b565b604051808273ffffffffffffffffffffffffffffffffffffffff1673ffffffffffffffffffffffffffffffffffffffff16815260200191505060405180910390f35b60005481565b60006003600083815260200190815260200160002060050160009054906101000a900460ff16600481111561063757fe5b9050919050565b60006106498661084f565b905060006106568661084f565b905060006106638661084f565b905060006106708661084f565b905060c0604051908101604052808b73ffffffffffffffffffffffffffffffffffffffff1681526020018581526020018481526020018381526020018281526020018660048111156106be57fe5b815250600360008060008154600101919050819055815260200190815260200160002060008201518160000160006101000a81548173ffffffffffffffffffffffffffffffffffffffff021916908373ffffffffffffffffffffffffffffffffffffffff1602179055506020820151816001015560408201518160020155606082015181600301556080820151816004015560a08201518160050160006101000a81548160ff0219169083600481111561077457fe5b0217905550905050600054600460008c73ffffffffffffffffffffffffffffffffffffffff1673ffffffffffffffffffffffffffffffffffffffff1681526020019081526020016000208190555050505050505050505050565b60046020528060005260406000206000915090505481565b60036020528060005260406000206000915090508060000160009054906101000a900473ffffffffffffffffffffffffffffffffffffffff16908060010154908060020154908060030154908060040154908060050160009054906101000a900460ff16905086565b6000606082905060008151141561086d576000600102915050610876565b60208301519150505b919050565b600160009054906101000a900473ffffffffffffffffffffffffffffffffffffffff168156fea165627a7a723058203fd79be0b145cf0737586c93b5a9367ebdbb95c70b998971f2baa8327b8c43380029",
  "source": "pragma solidity ^0.5.0;\r\n\r\ncontract UserInfo {\r\n\r\n\tenum userType{\r\n\t\tManufacturer,\r\n\t\tWholeSale_Dealer,\r\n\t\tPharmasists,\r\n\t\tAdmin,\r\n\t\tTransporter\r\n\t}\r\n\t//Model an order\r\n\tstruct User {\r\n\t\taddress accountId;\r\n\t\tbytes32 name;\r\n\t\tbytes32 email;\r\n\t\tbytes32 contactNumber;\r\n\t\tbytes32 licenseid;\r\n\t\tuserType utype;\r\n\t}\r\n\r\n\t//storing number of users\r\n\tuint public userCount;\r\n\taddress public admin;\r\n\tbytes32 admin_license;\r\n\t\r\n\t//Store the users in the system\r\n\tmapping(uint=> User ) public userslist;\r\n\t//map for userindex to account address\r\n\tmapping(address=>uint) public userMap;\r\n\r\n\tconstructor() public {\r\n\t\taddUser(0xF5D2D22681dB772507EF48BE6474Ab5037c10445,\"sdf\",\"sdfsdf@gmail.com\",\"9769577063\",\"asdasd\",userType.Admin);\r\n\t\taddUser(0x50BB13C54482AEb8c4085BdfE72556adC698C57F,\"sdf\",\"sdfsdf@gmail.com\",\"9769577063\",\"asdasd\",userType.Manufacturer);\r\n\t\taddUser(0x820FdF60e9e160F147249C82158866175a2F0844,\"sdf\",\"sdfsdf@gmail.com\",\"9769577063\",\"asdasd\",userType.WholeSale_Dealer);\r\n\t\taddUser(0x86F990A75DF2A4993357bb0D5D9cCE2ca7d98a28,\"sdf\",\"sdfsdf@gmail.com\",\"9769577063\",\"asdasd\",userType.Pharmasists);\r\n\t\taddUser(0xf32E838a29B25d7dE0E59f9FbAF63116426C64e4,\"sdf\",\"sdfsdf@gmail.com\",\"9769577063\",\"asdasd\",userType.Transporter);\r\n\t\tuserCount = 5;\r\n\t}\r\n\r\n\tmodifier onlyAdmin{ \r\n\t\trequire (msg.sender == admin); \r\n\t\t_; \r\n\t}\r\n\r\n\tfunction stringToBytes32(string memory source) public returns (bytes32 result) {\r\n\t    bytes memory tempEmptyStringTest = bytes(source);\r\n\t    if (tempEmptyStringTest.length == 0) {\r\n\t        return 0x0;\r\n\t    }\r\n\r\n\t    assembly {\r\n\t        result := mload(add(source, 32))\r\n\t    }\r\n\t}\r\n\t\r\n\r\n\tfunction addUser(address account,string memory uname,string memory uemail,string memory ucontactNumber, string memory ulicenseid, userType utype) public{\r\n        bytes32 name = stringToBytes32(uname);\r\n        bytes32 email = stringToBytes32(uemail);\r\n        bytes32 contactNumber = stringToBytes32(ucontactNumber);\r\n        bytes32 licenseid = stringToBytes32(ulicenseid);\r\n        userslist[++userCount] = User(account, name, email, contactNumber, licenseid, utype);\r\n        userMap[account] = userCount;\r\n\t}\r\n\r\n\tfunction getValue(uint _index)public returns (uint){\r\n      return uint(userslist[_index].utype);\r\n  }\r\n\r\n}\r\n\r\n",
  "sourcePath": "C:/MedChain/contracts/UserInfo.sol",
  "compiler": {
    "name": "solc",
    "version": "0.5.0+commit.1d4f565a.Emscripten.clang"
  },
  "schemaVersion": "3.0.6",
  "updatedAt": "2019-03-31T02:57:43.362Z",
  "devdoc": {
    "methods": {}
  },
  "userdoc": {
    "methods": {}
  }
}